{
  "contractName": "HaveAnIdea",
  "abi": [
    {
      "constant": true,
      "inputs": [
        {
          "internalType": "uint256",
          "name": "",
          "type": "uint256"
        }
      ],
      "name": "ideas",
      "outputs": [
        {
          "internalType": "address payable",
          "name": "initiator",
          "type": "address"
        },
        {
          "internalType": "string",
          "name": "name",
          "type": "string"
        },
        {
          "internalType": "string",
          "name": "title",
          "type": "string"
        },
        {
          "internalType": "string",
          "name": "story",
          "type": "string"
        },
        {
          "internalType": "string",
          "name": "img",
          "type": "string"
        },
        {
          "internalType": "uint256",
          "name": "goal",
          "type": "uint256"
        },
        {
          "internalType": "uint256",
          "name": "endTime",
          "type": "uint256"
        },
        {
          "internalType": "bool",
          "name": "success",
          "type": "bool"
        },
        {
          "internalType": "uint256",
          "name": "amount",
          "type": "uint256"
        },
        {
          "internalType": "uint256",
          "name": "numFunders",
          "type": "uint256"
        },
        {
          "internalType": "uint256",
          "name": "numUses",
          "type": "uint256"
        }
      ],
      "payable": false,
      "stateMutability": "view",
      "type": "function"
    },
    {
      "constant": true,
      "inputs": [],
      "name": "numIdeas",
      "outputs": [
        {
          "internalType": "uint256",
          "name": "",
          "type": "uint256"
        }
      ],
      "payable": false,
      "stateMutability": "view",
      "type": "function"
    },
    {
      "constant": false,
      "inputs": [
        {
          "internalType": "address payable",
          "name": "initiator",
          "type": "address"
        },
        {
          "internalType": "string",
          "name": "title",
          "type": "string"
        },
        {
          "internalType": "string",
          "name": "story",
          "type": "string"
        },
        {
          "internalType": "uint256",
          "name": "goal",
          "type": "uint256"
        },
        {
          "internalType": "uint256",
          "name": "endTime",
          "type": "uint256"
        },
        {
          "internalType": "string",
          "name": "img",
          "type": "string"
        }
      ],
      "name": "createIdea",
      "outputs": [
        {
          "internalType": "uint256",
          "name": "",
          "type": "uint256"
        }
      ],
      "payable": false,
      "stateMutability": "nonpayable",
      "type": "function"
    },
    {
      "constant": false,
      "inputs": [
        {
          "internalType": "uint256",
          "name": "ID",
          "type": "uint256"
        }
      ],
      "name": "contribute",
      "outputs": [],
      "payable": true,
      "stateMutability": "payable",
      "type": "function"
    },
    {
      "constant": false,
      "inputs": [
        {
          "internalType": "uint256",
          "name": "ID",
          "type": "uint256"
        }
      ],
      "name": "returnMoney",
      "outputs": [],
      "payable": false,
      "stateMutability": "nonpayable",
      "type": "function"
    },
    {
      "constant": false,
      "inputs": [
        {
          "internalType": "uint256",
          "name": "ID",
          "type": "uint256"
        },
        {
          "internalType": "uint256",
          "name": "goal",
          "type": "uint256"
        },
        {
          "internalType": "string",
          "name": "info",
          "type": "string"
        }
      ],
      "name": "newUse",
      "outputs": [],
      "payable": false,
      "stateMutability": "nonpayable",
      "type": "function"
    },
    {
      "constant": false,
      "inputs": [
        {
          "internalType": "uint256",
          "name": "ID",
          "type": "uint256"
        },
        {
          "internalType": "uint256",
          "name": "useID",
          "type": "uint256"
        },
        {
          "internalType": "bool",
          "name": "agree",
          "type": "bool"
        }
      ],
      "name": "agreeUse",
      "outputs": [],
      "payable": false,
      "stateMutability": "nonpayable",
      "type": "function"
    },
    {
      "constant": false,
      "inputs": [
        {
          "internalType": "uint256",
          "name": "ID",
          "type": "uint256"
        },
        {
          "internalType": "uint256",
          "name": "useID",
          "type": "uint256"
        }
      ],
      "name": "checkUse",
      "outputs": [],
      "payable": false,
      "stateMutability": "nonpayable",
      "type": "function"
    },
    {
      "constant": true,
      "inputs": [
        {
          "internalType": "uint256",
          "name": "ID",
          "type": "uint256"
        }
      ],
      "name": "getUseLength",
      "outputs": [
        {
          "internalType": "uint256",
          "name": "",
          "type": "uint256"
        }
      ],
      "payable": false,
      "stateMutability": "view",
      "type": "function"
    },
    {
      "constant": true,
      "inputs": [
        {
          "internalType": "uint256",
          "name": "ID",
          "type": "uint256"
        },
        {
          "internalType": "uint256",
          "name": "useID",
          "type": "uint256"
        },
        {
          "internalType": "address",
          "name": "addr",
          "type": "address"
        }
      ],
      "name": "getUse",
      "outputs": [
        {
          "internalType": "string",
          "name": "",
          "type": "string"
        },
        {
          "internalType": "uint256",
          "name": "",
          "type": "uint256"
        },
        {
          "internalType": "uint256",
          "name": "",
          "type": "uint256"
        },
        {
          "internalType": "uint256",
          "name": "",
          "type": "uint256"
        },
        {
          "internalType": "bool",
          "name": "",
          "type": "bool"
        },
        {
          "internalType": "uint256",
          "name": "",
          "type": "uint256"
        }
      ],
      "payable": false,
      "stateMutability": "view",
      "type": "function"
    },
    {
      "constant": true,
      "inputs": [],
      "name": "getBalance",
      "outputs": [
        {
          "internalType": "uint256",
          "name": "",
          "type": "uint256"
        }
      ],
      "payable": false,
      "stateMutability": "view",
      "type": "function"
    },
    {
      "constant": true,
      "inputs": [
        {
          "internalType": "address",
          "name": "addr",
          "type": "address"
        },
        {
          "internalType": "uint256",
          "name": "ID",
          "type": "uint256"
        }
      ],
      "name": "getMyFundings",
      "outputs": [
        {
          "internalType": "uint256",
          "name": "",
          "type": "uint256"
        }
      ],
      "payable": false,
      "stateMutability": "view",
      "type": "function"
    }
  ],
  "bytecode": "0x608060405234801561001057600080fd5b50611d6b806100206000396000f3fe6080604052600436106100a75760003560e01c80638a23e047116100645780638a23e047146102fd5780638fda8e911461034257806395b5383714610580578063a7ae893a146107d9578063c1cbbca714610804578063ee40f60d14610832576100a7565b806312065fe0146100ac578063164b2fb3146100d75780633785fc1a146101b35780633c698349146101ee57806357531ea21461023d578063716f71471461028e575b600080fd5b3480156100b857600080fd5b506100c1610937565b6040518082815260200191505060405180910390f35b3480156100e357600080fd5b506101b1600480360360608110156100fa57600080fd5b8101908080359060200190929190803590602001909291908035906020019064010000000081111561012b57600080fd5b82018360208201111561013d57600080fd5b8035906020019184600183028401116401000000008311171561015f57600080fd5b91908080601f016020809104026020016040519081016040528093929190818152602001838380828437600081840152601f19601f82011690508083019250505050505050919291929050505061093f565b005b3480156101bf57600080fd5b506101ec600480360360208110156101d657600080fd5b8101908080359060200190929190505050610b27565b005b3480156101fa57600080fd5b506102276004803603602081101561021157600080fd5b8101908080359060200190929190505050610cfe565b6040518082815260200191505060405180910390f35b34801561024957600080fd5b5061028c6004803603606081101561026057600080fd5b810190808035906020019092919080359060200190929190803515159060200190929190505050610d39565b005b34801561029a57600080fd5b506102e7600480360360408110156102b157600080fd5b81019080803573ffffffffffffffffffffffffffffffffffffffff16906020019092919080359060200190929190505050611130565b6040518082815260200191505060405180910390f35b34801561030957600080fd5b506103406004803603604081101561032057600080fd5b810190808035906020019092919080359060200190929190505050611221565b005b34801561034e57600080fd5b5061056a600480360360c081101561036557600080fd5b81019080803573ffffffffffffffffffffffffffffffffffffffff169060200190929190803590602001906401000000008111156103a257600080fd5b8201836020820111156103b457600080fd5b803590602001918460018302840111640100000000831117156103d657600080fd5b91908080601f016020809104026020016040519081016040528093929190818152602001838380828437600081840152601f19601f8201169050808301925050505050505091929192908035906020019064010000000081111561043957600080fd5b82018360208201111561044b57600080fd5b8035906020019184600183028401116401000000008311171561046d57600080fd5b91908080601f016020809104026020016040519081016040528093929190818152602001838380828437600081840152601f19601f8201169050808301925050505050505091929192908035906020019092919080359060200190929190803590602001906401000000008111156104e457600080fd5b8201836020820111156104f657600080fd5b8035906020019184600183028401116401000000008311171561051857600080fd5b91908080601f016020809104026020016040519081016040528093929190818152602001838380828437600081840152601f19601f8201169050808301925050505050505091929192905050506114b6565b6040518082815260200191505060405180910390f35b34801561058c57600080fd5b506105b9600480360360208110156105a357600080fd5b81019080803590602001909291905050506115d3565b604051808c73ffffffffffffffffffffffffffffffffffffffff1673ffffffffffffffffffffffffffffffffffffffff168152602001806020018060200180602001806020018b81526020018a81526020018915151515815260200188815260200187815260200186815260200185810385528f818151815260200191508051906020019080838360005b8381101561065f578082015181840152602081019050610644565b50505050905090810190601f16801561068c5780820380516001836020036101000a031916815260200191505b5085810384528e818151815260200191508051906020019080838360005b838110156106c55780820151818401526020810190506106aa565b50505050905090810190601f1680156106f25780820380516001836020036101000a031916815260200191505b5085810383528d818151815260200191508051906020019080838360005b8381101561072b578082015181840152602081019050610710565b50505050905090810190601f1680156107585780820380516001836020036101000a031916815260200191505b5085810382528c818151815260200191508051906020019080838360005b83811015610791578082015181840152602081019050610776565b50505050905090810190601f1680156107be5780820380516001836020036101000a031916815260200191505b509f5050505050505050505050505050505060405180910390f35b3480156107e557600080fd5b506107ee6118ba565b6040518082815260200191505060405180910390f35b6108306004803603602081101561081a57600080fd5b81019080803590602001909291905050506118c0565b005b34801561083e57600080fd5b506108956004803603606081101561085557600080fd5b810190808035906020019092919080359060200190929190803573ffffffffffffffffffffffffffffffffffffffff169060200190929190505050611a3d565b604051808060200187815260200186815260200185815260200184151515158152602001838152602001828103825288818151815260200191508051906020019080838360005b838110156108f75780820151818401526020810190506108dc565b50505050905090810190601f1680156109245780820380516001836020036101000a031916815260200191505b5097505050505050505060405180910390f35b600047905090565b6000548311158015610952575060018310155b61095b57600080fd5b600115156001600085815260200190815260200160002060070160009054906101000a900460ff1615151461098f57600080fd5b60016000848152602001908152602001600020600801548211156109b257600080fd5b6001600084815260200190815260200160002060000160009054906101000a900473ffffffffffffffffffffffffffffffffffffffff1673ffffffffffffffffffffffffffffffffffffffff163373ffffffffffffffffffffffffffffffffffffffff1614610a2057600080fd5b6000600160008581526020019081526020016000209050600181600a01540181600a01819055508181600c01600083600a015481526020019081526020016000206000019080519060200190610a77929190611c91565b508281600c01600083600a0154815260200190815260200160002060010181905550600081600c01600083600a0154815260200190815260200160002060020181905550600081600c01600083600a0154815260200190815260200160002060030181905550600081600c01600083600a0154815260200190815260200160002060040160006101000a81548160ff02191690831515021790555082816008015403816008018190555050505050565b6000548111158015610b3a575060018110155b610b4357600080fd5b600015156001600083815260200190815260200160002060070160009054906101000a900460ff16151514610b7757600080fd5b60006001600083815260200190815260200160002090506000600190505b81600901548111610cf9573373ffffffffffffffffffffffffffffffffffffffff1682600b01600083815260200190815260200160002060000160009054906101000a900473ffffffffffffffffffffffffffffffffffffffff1673ffffffffffffffffffffffffffffffffffffffff161415610cec5781600b01600082815260200190815260200160002060000160009054906101000a900473ffffffffffffffffffffffffffffffffffffffff1673ffffffffffffffffffffffffffffffffffffffff166108fc83600b016000848152602001908152602001600020600101549081150290604051600060405180830381858888f19350505050158015610ca2573d6000803e3d6000fd5b5081600b016000828152602001908152602001600020600101548260080160008282540392505081905550600082600b016000838152602001908152602001600020600101819055505b8080600101915050610b95565b505050565b600080548211158015610d12575060018210155b610d1b57600080fd5b60016000838152602001908152602001600020600a01549050919050565b6000548311158015610d4c575060018310155b610d5557600080fd5b60016000848152602001908152602001600020600a01548211158015610d7c575060018210155b610d8557600080fd5b6000151560016000858152602001908152602001600020600c01600084815260200190815260200160002060040160009054906101000a900460ff16151514610dcd57600080fd5b6000600190505b60016000858152602001908152602001600020600901548111611120573373ffffffffffffffffffffffffffffffffffffffff1660016000868152602001908152602001600020600b01600083815260200190815260200160002060000160009054906101000a900473ffffffffffffffffffffffffffffffffffffffff1673ffffffffffffffffffffffffffffffffffffffff161415611113576001806000868152602001908152602001600020600c0160008581526020019081526020016000206005016000838152602001908152602001600020541415610f195760016000858152602001908152602001600020600b0160008281526020019081526020016000206001015460016000868152602001908152602001600020600c01600085815260200190815260200160002060020160008282540392505081905550610fc1565b600260016000868152602001908152602001600020600c0160008581526020019081526020016000206005016000838152602001908152602001600020541415610fc05760016000858152602001908152602001600020600b0160008281526020019081526020016000206001015460016000868152602001908152602001600020600c016000858152602001908152602001600020600301600082825403925050819055505b5b811561106e5760016000858152602001908152602001600020600b0160008281526020019081526020016000206001015460016000868152602001908152602001600020600c016000858152602001908152602001600020600201600082825401925050819055506001806000868152602001908152602001600020600c016000858152602001908152602001600020600501600083815260200190815260200160002081905550611112565b60016000858152602001908152602001600020600b0160008281526020019081526020016000206001015460016000868152602001908152602001600020600c01600085815260200190815260200160002060030160008282540192505081905550600260016000868152602001908152602001600020600c0160008581526020019081526020016000206005016000838152602001908152602001600020819055505b5b8080600101915050610dd4565b5061112b8383611221565b505050565b600080600090506000600190505b60016000858152602001908152602001600020600901548111611216578473ffffffffffffffffffffffffffffffffffffffff1660016000868152602001908152602001600020600b01600083815260200190815260200160002060000160009054906101000a900473ffffffffffffffffffffffffffffffffffffffff1673ffffffffffffffffffffffffffffffffffffffff1614156112095760016000858152602001908152602001600020600b01600082815260200190815260200160002060010154820191505b808060010191505061113e565b508091505092915050565b6000548211158015611234575060018210155b61123d57600080fd5b6000151560016000848152602001908152602001600020600c01600083815260200190815260200160002060040160009054906101000a900460ff1615151461128557600080fd5b60026001600084815260200190815260200160002060050154816112a557fe5b0460016000848152602001908152602001600020600c01600083815260200190815260200160002060020154106113c0576001806000848152602001908152602001600020600c01600083815260200190815260200160002060040160006101000a81548160ff0219169083151502179055506001600083815260200190815260200160002060000160009054906101000a900473ffffffffffffffffffffffffffffffffffffffff1673ffffffffffffffffffffffffffffffffffffffff166108fc60016000858152602001908152602001600020600c016000848152602001908152602001600020600101549081150290604051600060405180830381858888f193505050501580156113be573d6000803e3d6000fd5b505b60026001600084815260200190815260200160002060050154816113e057fe5b0460016000848152602001908152602001600020600c0160008381526020019081526020016000206003015411156114b25760016000838152602001908152602001600020600c0160008281526020019081526020016000206001015460016000848152602001908152602001600020600801540160016000848152602001908152602001600020600801819055506001806000848152602001908152602001600020600c01600083815260200190815260200160002060040160006101000a81548160ff0219169083151502179055505b5050565b60004283116114c457600080fd5b600160005401600081905550600060016000805481526020019081526020016000209050878160000160006101000a81548173ffffffffffffffffffffffffffffffffffffffff021916908373ffffffffffffffffffffffffffffffffffffffff16021790555086816002019080519060200190611543929190611c91565b508581600301908051906020019061155c929190611c91565b5084816005018190555083816006018190555060008160070160006101000a81548160ff0219169083151502179055506000816008018190555060008160090181905550600081600a0181905550828160040190805190602001906115c2929190611c91565b506000549150509695505050505050565b60016020528060005260406000206000915090508060000160009054906101000a900473ffffffffffffffffffffffffffffffffffffffff1690806001018054600181600116156101000203166002900480601f0160208091040260200160405190810160405280929190818152602001828054600181600116156101000203166002900480156116a55780601f1061167a576101008083540402835291602001916116a5565b820191906000526020600020905b81548152906001019060200180831161168857829003601f168201915b505050505090806002018054600181600116156101000203166002900480601f0160208091040260200160405190810160405280929190818152602001828054600181600116156101000203166002900480156117435780601f1061171857610100808354040283529160200191611743565b820191906000526020600020905b81548152906001019060200180831161172657829003601f168201915b505050505090806003018054600181600116156101000203166002900480601f0160208091040260200160405190810160405280929190818152602001828054600181600116156101000203166002900480156117e15780601f106117b6576101008083540402835291602001916117e1565b820191906000526020600020905b8154815290600101906020018083116117c457829003601f168201915b505050505090806004018054600181600116156101000203166002900480601f01602080910402602001604051908101604052809291908181526020018280546001816001161561010002031660029004801561187f5780601f106118545761010080835404028352916020019161187f565b820191906000526020600020905b81548152906001019060200180831161186257829003601f168201915b5050505050908060050154908060060154908060070160009054906101000a900460ff169080600801549080600901549080600a015490508b565b60005481565b6000341180156118fe575060016000828152602001908152602001600020600801546001600083815260200190815260200160002060050154033411155b61190757600080fd5b4260016000838152602001908152602001600020600601541161192957600080fd5b600015156001600083815260200190815260200160002060070160009054906101000a900460ff1615151461195d57600080fd5b6000600160008381526020019081526020016000209050348160080160008282540192505081905550600181600901540181600901819055503381600b0160008360090154815260200190815260200160002060000160006101000a81548173ffffffffffffffffffffffffffffffffffffffff021916908373ffffffffffffffffffffffffffffffffffffffff1602179055503481600b01600083600901548152602001908152602001600020600101819055508060050154816008015410158160070160006101000a81548160ff0219169083151502179055505050565b6060600080600080600080548911158015611a59575060018910155b611a6257600080fd5b600160008a8152602001908152602001600020600a01548811158015611a89575060018810155b611a9257600080fd5b6000600160008b8152602001908152602001600020600c0160008a8152602001908152602001600020905060008090506000600190505b600160008d8152602001908152602001600020600901548111611bb4578973ffffffffffffffffffffffffffffffffffffffff16600160008e8152602001908152602001600020600b01600083815260200190815260200160002060000160009054906101000a900473ffffffffffffffffffffffffffffffffffffffff1673ffffffffffffffffffffffffffffffffffffffff161415611ba757600160008d8152602001908152602001600020600c0160008c81526020019081526020016000206005016000828152602001908152602001600020549150611bb4565b8080600101915050611ac9565b50816000018260010154836002015484600301548560040160009054906101000a900460ff1685858054600181600116156101000203166002900480601f016020809104026020016040519081016040528092919081815260200182805460018160011615610100020316600290048015611c705780601f10611c4557610100808354040283529160200191611c70565b820191906000526020600020905b815481529060010190602001808311611c5357829003601f168201915b50505050509550975097509750975097509750505093975093979195509350565b828054600181600116156101000203166002900490600052602060002090601f016020900481019282601f10611cd257805160ff1916838001178555611d00565b82800160010185558215611d00579182015b82811115611cff578251825591602001919060010190611ce4565b5b509050611d0d9190611d11565b5090565b611d3391905b80821115611d2f576000816000905550600101611d17565b5090565b9056fea265627a7a723158202e28f1309b023b0f14da067969bcbdaa4032a3c38b1a7b05329c808016c1b8c364736f6c63430005100032",
  "source": "// SPDX-License-Identifier: MIT\npragma solidity >=0.4.22 <0.9.0;\n\ncontract HaveAnIdea {\n\n    // \n    struct Funder {\n        address payable addr;\n        uint amount;\n    }\n\n    // \n    struct Use {\n        string info;\n        uint goal;\n        uint agreeAmount;\n        uint disagree;\n        bool over;\n        mapping(uint => uint) agree;\n    }\n\n    struct Idea {\n        address payable initiator;\n        string name;\n        string title;\n        string story;\n        string img;\n        uint goal;\n        uint endTime;\n        bool success;\n        uint amount;\n        uint numFunders;\n        uint numUses;\n        mapping(uint => Funder) funders;\n        mapping(uint => Use) uses;\n    }\n\n    uint public numIdeas;\n    mapping(uint => Idea) public ideas;\n\n    function createIdea(address payable initiator,string memory title, string memory story, uint goal, uint endTime,string memory img) public returns(uint) {\n        require(endTime > block.timestamp);\n        numIdeas = numIdeas + 1;\n        Idea storage idea = ideas[numIdeas];\n        idea.initiator = initiator;\n        idea.title = title;\n        idea.story = story;\n        idea.goal = goal;\n        idea.endTime = endTime;\n        idea.success = false;\n        idea.amount = 0;\n        idea.numFunders = 0;\n        idea.numUses = 0;\n        idea.img = img;\n        return numIdeas;\n    }\n\n    function contribute(uint ID) public payable {\n        // 0\n        require(msg.value > 0 && msg.value <= ideas[ID].goal - ideas[ID].amount);\n        // \n        require(ideas[ID].endTime > block.timestamp);\n        // \n        require(ideas[ID].success == false);\n\n        Idea storage idea = ideas[ID];\n        idea.amount += msg.value;\n        idea.numFunders = idea.numFunders + 1;\n        idea.funders[idea.numFunders].addr = msg.sender;\n        idea.funders[idea.numFunders].amount = msg.value;\n        // \n        idea.success = idea.amount >= idea.goal;\n    }\n\n    // \n    function returnMoney(uint ID) public {\n        require(ID <= numIdeas && ID >= 1);\n        require(ideas[ID].success == false);\n\n        Idea storage idea = ideas[ID];\n        for(uint i=1; i<=idea.numFunders; i++)\n            if(idea.funders[i].addr == msg.sender) {\n                idea.funders[i].addr.transfer(idea.funders[i].amount);\n                idea.amount -= idea.funders[i].amount;\n                idea.funders[i].amount = 0;\n            }\n    }\n\n    function newUse(uint ID, uint goal, string memory info) public {\n        require(ID <= numIdeas && ID >= 1);\n        require(ideas[ID].success == true);\n        require(goal <= ideas[ID].amount);\n        require(msg.sender == ideas[ID].initiator);\n        Idea storage idea = ideas[ID];\n        idea.numUses = idea.numUses + 1;\n        idea.uses[idea.numUses].info = info;\n        idea.uses[idea.numUses].goal = goal;\n        idea.uses[idea.numUses].agreeAmount = 0;\n        idea.uses[idea.numUses].disagree = 0;\n        idea.uses[idea.numUses].over = false;\n        idea.amount = idea.amount - goal;\n    }\n\n    function agreeUse(uint ID, uint useID, bool agree) public {\n        require(ID <= numIdeas && ID >= 1);\n        require(useID <= ideas[ID].numUses && useID >= 1);\n        require(ideas[ID].uses[useID].over == false);\n\n        for(uint i=1; i<=ideas[ID].numFunders; i++)\n            if(ideas[ID].funders[i].addr == msg.sender) {\n                if(ideas[ID].uses[useID].agree[i] == 1) {\n                    ideas[ID].uses[useID].agreeAmount -= ideas[ID].funders[i].amount;\n                } else if(ideas[ID].uses[useID].agree[i] == 2) {\n                    ideas[ID].uses[useID].disagree -= ideas[ID].funders[i].amount;\n                }\n                if(agree) {\n                    ideas[ID].uses[useID].agreeAmount += ideas[ID].funders[i].amount;\n                    ideas[ID].uses[useID].agree[i] = 1;\n                } else {\n                    ideas[ID].uses[useID].disagree += ideas[ID].funders[i].amount;\n                    ideas[ID].uses[useID].agree[i] = 2;\n                }\n            }\n        checkUse(ID, useID);\n    }\n\n    function checkUse(uint ID, uint useID) public {\n        require(ID <= numIdeas && ID >= 1);\n        require(ideas[ID].uses[useID].over == false);\n\n        if(ideas[ID].uses[useID].agreeAmount >= ideas[ID].goal / 2) {\n            ideas[ID].uses[useID].over = true;\n            ideas[ID].initiator.transfer(ideas[ID].uses[useID].goal);\n        }\n        if(ideas[ID].uses[useID].disagree > ideas[ID].goal / 2) {\n            ideas[ID].amount = ideas[ID].amount + ideas[ID].uses[useID].goal;\n            ideas[ID].uses[useID].over = true;\n        }\n    }\n\n    function getUseLength(uint ID) public view returns (uint) {\n        require(ID <= numIdeas && ID >= 1);\n        return ideas[ID].numUses;\n    }\n\n    function getUse(uint ID, uint useID, address addr) public view returns (string memory, uint, uint, uint, bool, uint) {\n        require(ID <= numIdeas && ID >= 1);\n        require(useID <= ideas[ID].numUses && useID >= 1);\n\n        Use storage u = ideas[ID].uses[useID];\n        uint agree = 0;\n        for(uint i=1; i<=ideas[ID].numFunders; i++)\n            if(ideas[ID].funders[i].addr == addr) {\n                agree = ideas[ID].uses[useID].agree[i];\n                break;\n            }\n        return (u.info, u.goal, u.agreeAmount, u.disagree, u.over, agree);\n    }\n\n    function getBalance() public view returns (uint) {\n        return address(this).balance;\n    }\n\n    function getMyFundings(address addr, uint ID) public view returns (uint) {\n        uint res = 0;\n        for(uint i=1; i<=ideas[ID].numFunders; i++) {\n            if(ideas[ID].funders[i].addr == addr)\n                res += ideas[ID].funders[i].amount;\n        }\n        return res;\n    }\n}",
  "sourcePath": "/Users/xukui/demo-workspace/app.haveanidea.me/contracts/HaveAnIdea.sol",
  "compiler": {
    "name": "solc",
    "version": "0.5.16+commit.9c3226ce.Emscripten.clang"
  },
  "schemaVersion": "3.4.16",
  "updatedAt": "2024-12-20T13:19:24.455Z",
  "networkType": "ethereum",
  "devdoc": {
    "methods": {}
  },
  "userdoc": {
    "methods": {}
  }
}